:020000040800F2
:10000000D006002001010008892600089723000877
:1000100085260008C1020008952E00080000000097
:10002000000000000000000000000000A52A0008F9
:10003000010300080000000041290008A72A000869
:100040001B0100081B0100081B0100081B01000820
:100050001B0100081B0100081B0100081B01000810
:100060001B0100081B0100081B010008C502000855
:100070001B0100081B0100081B0100081B010008F0
:100080001B0100081B0100081B0100081B010008E0
:100090001B0100081B0100081B0100081B010008D0
:1000A0001B0100081B0100081B0100081B010008C0
:1000B0001B0100088D2B00081B0100081B01000814
:1000C0001B0100081B0100081B0100081B010008A0
:1000D0001B0100081B0100081B0100081B01000890
:1000E0001B0100081B0100081B010008DFF80CD0F1
:1000F00000F02AF8004800473D2F0008D0060020F5
:100100000648804706480047FEE7FEE7FEE7FEE7B1
:10011000FEE7FEE7FEE7FEE7FEE7FEE7352B000819
:10012000ED000008D2B201E000F8012B491EFBD21D
:1001300070470022F6E710B513460A4604461946F2
:10014000FFF7F0FF204610BD064C074D06E0E068C3
:1001500040F0010394E8070098471034AC42F6D30E
:10016000FFF7C8FFC0300008E030000870B5044653
:1001700000252068806800F00100F0B120688068E8
:1001800020F001002168886000F000FF05460EE0C5
:1001900000F0FCFE401B022809D9A06A40F01000C4
:1001A000A062E06A40F00100E062012070BD2068BA
:1001B000806800F001000028EAD10020F6E770B561
:1001C00005466C6AA06A00F05000E0B9A06A40F4ED
:1001D0000070A0622068806800F46020B0F5602F95
:1001E0000DD1207B58B9A06A20F48070A062A06A6B
:1001F00000F4805018B9A06A40F00100A0622046C7
:1002000000F0B2F903E0206A016B2846884770BD10
:1002100070B505466C6AA06A40F04000A062E06AD2
:1002200040F00400E062204600F0FBF970BD70B5BC
:100230000446656A284600F0F3F970BD38B50446F7
:100240000025002000902068806800F0010080BB3D
:100250002068806840F001002168886016480068C6
:100260001649B0FBF1F0009002E00098401E0090AB
:1002700000980028F9D100F089FE054613E000F04F
:1002800085FE401B02280ED9A06A40F01000A06233
:10029000E06A40F00100E06200BF002084F8240022
:1002A00000BF012038BD2068806800F001000028F0
:1002B000E5D00020F6E700003400002040420F00A7
:1002C00000BFFEE710B5024800F066FB10BD00005D
:1002D000B001002030B590F840500124AC40C56B0F
:1002E0006C60046863604468102C04D10468A260E8
:1002F0000468E16003E00468A1600468E26030BD66
:1003000070477047F8B5044600260020009000BFF3
:1003100094F82400012801D10220F8BD012084F8BE
:10032000240000BF2046FFF721FF0646002E62D1C1
:10033000A06A20F4885040F00200A062022000F081
:1003400023FF30490968B1FBF0F04000009002E063
:100350000098401E009000980028F9D12046FFF731
:100360006DFF2068806840F008002168886000F018
:100370000DFE054611E000F009FE401B0A280CD9CD
:10038000A06A20F0020040F01000A06200BF002030
:1003900084F8240000BF0120BFE72068806800F0D7
:1003A00008000028E7D12068806840F00400216838
:1003B000886000F0EBFD054611E000F0E7FD401B12
:1003C0000A280CD9A06A20F0020040F01000A062B8
:1003D00000BF002084F8240000BF01209DE72068B2
:1003E000806800F004000028E7D1A06A20F0020035
:1003F00040F00100A06200BF002084F8240000BF8C
:1004000030468AE73400002038B502460023002039
:10041000009000BF92F82400012801D1022038BDCD
:10042000012082F8240000BF4868072812D2106813
:10043000406B0C79641E04EB84051F24AC40A04380
:100440000D796D1E05EB85050C68AC4020431468E2
:10045000606327E048680D2812D21068006B0C79A1
:10046000E41F04EB84051F24AC40A0430D79ED1F6D
:1004700005EB85050C68AC4020431468206311E04F
:100480001068C06A0C790D3C04EB84051F24AC4055
:10049000A0430D790D3D05EB85050C68AC4020436C
:1004A0001468E06208680A2812D31068C0680C78E3
:1004B0000A3C04EB44050724AC40A0430D780A3DF8
:1004C00005EB45058C68AC4020431468E0600FE004
:1004D000106800690C7804EB44050724AC40A04385
:1004E0000D7805EB45058C68AC402043146820610D
:1004F0000868102802D00868112827D1174C106806
:10050000A0421ED11068806800F40000F0B91068A5
:10051000806840F400001468A0600868102815D1B5
:100520000F4800680F4CB0FBF4F000EB8000400077
:10053000009002E00098401E009000980028F9D139
:1005400004E0906A40F020009062012300BF002088
:1005500082F8240000BF184661E700000024014033
:100560003400002040420F0070B50546002004E032
:100570000021254A22F81010401C0828F8DB092425
:10058000002033E0002110E001EB410200EB4202C9
:100590001E4B33F8122092FBF4F21B4B33F8103051
:1005A0001A44194B23F81020491CA142ECDB1649D0
:1005B00031F81010FF2291FBF2F1154A1154124943
:1005C00031F81010FF2291FBF2F302FB1311114AD4
:1005D00011540F49095C104A02F810100D49095CCA
:1005E000012202EB40020C4B9954401C0428C9DB49
:1005F000094802F03DF909490870084600782028AA
:1006000001D000F09FFD70BD4C0100205C00002077
:100610006A01002074010020600100201500002004
:10062000704770472DE9F041044600270025002659
:10063000A84614B90120BDE8F081A06810B1207D62
:1006400000B100BFA06A30B90020E06284F8240045
:10065000204600F089F82046FFF788FD0746A06A8B
:1006600000F01000002873D1002F71D1A06A20F48F
:10067000885040F00200A062E16960680843217B75
:1006800040EA41000643A068B0F5807F02D0A06830
:10069000012802D14FF4807000E000200543207D46
:1006A000012811D1207B38B9A069401E4FF40061A8
:1006B00041EA4030054307E0A06A40F02000A06214
:1006C000E06A40F00100E0622068406820F4694080
:1006D00028432168486020688068214908403043E9
:1006E00021688860A068B0F5807F02D0A0680128EA
:1006F00002D14FF4807000E00020B0F5807F03D17C
:10070000208A401E4FEA00582068C06A20F470001A
:1007100040EA08002168C8622068806811490840E2
:10072000B04208D10020E062A06A20F0020040F050
:100730000100A06211E0A06A20F0020040F0100069
:10074000A062E06A40F00100E062012705E0FFE7F7
:10075000A06A40F01000A062012738466BE7000055
:10076000FDF7E1FFFE0E1FFF10B586B00446002026
:1007700002900390049005902249206888423ED15F
:1007800000BF2148806940F400701F498861084615
:10079000806900F40070019000BF00BF00BF0846F0
:1007A000806940F0040088610846806900F0040018
:1007B000019000BF00BF7E2002900320039002A999
:1007C000124800F04DFA12481249086000204860B3
:1007D0000021104881608021C160490001618900C9
:1007E0004161202181610021C16100F0A3F908B1BC
:1007F000FFF787FD00BF07482062446200BF06B0D4
:1008000010BD00000024014000100240000801401B
:1008100008000240B00100202DE9F04104460D46D9
:100820001646002757492068884203D05649206859
:10083000884205D15348001D006800F4702000E094
:10084000002000287ED100BF94F82400012802D1A6
:100850000220BDE8F081012084F8240000BF20467A
:10086000FFF7ECFC0746002F6DD1A06A40F601614E
:10087000884340F48070A06243492068884209D1CF
:100880004048001D006800F4702008B9012002E013
:10089000002000E0012078B1A06A20F48010A0625E
:1008A0002068406800F4806000B3A06A20F4005023
:1008B00040F48050A06219E0A06A40F48010A06269
:1008C00030492068884203D02F492068884205D1EA
:1008D0002C48001D006800F4806000E0002028B172
:1008E000A06A20F4005040F48050A062A06A00F496
:1008F000805020B1E06A20F00600E06201E00020B4
:10090000E06200BF002084F8240000BF1F48216A75
:1009100088621F48216AC8621E48216A08636FF016
:100920000200216808602068806840F480702168B7
:100930008860226802F14C0133462A46206A00F0A2
:100940002DF901E01AE014E02068806800F46020CE
:10095000B0F5602F06D12068806840F4A0002168BF
:1009600088600CE02068806840F48010216888600E
:1009700005E000BF002084F8240000E0012738468D
:1009800067E700000024014000280140BF01000883
:100990002F0200081102000870B50446E06B0568DC
:1009A0002068066894F840100420884028400028F9
:1009B00046D006F00400002842D02068006800F00D
:1009C000200028B92068006820F004002168086031
:1009D00057492068884201D1042027E05449143146
:1009E0002068884201D1402020E051492831206808
:1009F000884201D1001519E04D493C3120688842F8
:100A000002D14FF4804011E04949503120688842BA
:100A100002D14FF4802009E04549643120688842C2
:100A200002D14FF4800001E04FF080604049083966
:100A30004860E06A00287AD02046E16A884776E07C
:100A400094F84010022088402840A0B306F002002D
:100A500088B32068006800F0200040B92068006872
:100A600020F00A0021680860012084F82100304944
:100A70002068884201D1022028E02D4914312068E5
:100A8000884201D1202021E029492831206888426C
:100A900001D140151AE026493C312068884202D134
:100AA0004FF4005012E0224950312068884203D1AF
:100AB0004FF400300AE017E01D4964312068884295
:100AC00002D14FF4001001E04FF0007018490839CE
:100AD000486000BF002084F8200000BFA06A30B347
:100AE0002046A16A884722E094F8401008208840F8
:100AF0002840E0B106F00800C8B12068006820F086
:100B00000E002168086094F8401001208840E16BD5
:100B100048600120A06384F8210000BF002084F811
:100B2000200000BF206B10B12046216B884770BDAC
:100B3000080002400146002209B901207047164B07
:100B40000868C01A1423B0FBF3F080000864124850
:100B50000838C863022081F821000868026843F65B
:100B6000F0708243D1E901031843CB6818430B6945
:100B700018434B6918438B691843CB6918430243E8
:100B80000868026000208863012081F821000020AD
:100B900081F8200000BFD1E7080002402DE9F041B4
:100BA00004460D4616461F464FF0000800BF94F855
:100BB0002000012802D10220BDE8F081012084F844
:100BC000200000BF94F8210001282CD1022084F8D5
:100BD00021000020A0632068006820F00100216847
:100BE00008603B46324629462046FFF773FBE06A21
:100BF00030B12068006840F00E00216808600BE00A
:100C00002068006820F004002168086020680068FF
:100C100040F00A00216808602068006840F0010088
:100C20002168086006E000BF002084F8200000BFB3
:100C30004FF002084046BFE770B5044600F0A6F941
:100C400006462546681C10B104480078054400BFDC
:100C500000F09CF9801BA842FAD370BD3000002040
:100C60002DE9F8470346002294466EE14FF0010853
:100C700008FA02F4D1F8008008EA0400A0427DD10D
:100C8000DFF8DCA2D1F80480A8EB0A09D0453AD0FD
:100C900014DCB8F1030F50D009DCB8F1000F31D0EB
:100CA000B8F1010F1CD0B8F1020F49D120E0B8F122
:100CB000110F18D0B8F1120F42D11EE0B9F5881FFC
:100CC00025D006DCB9F5803F20D0B9F5801F37D19B
:100CD0001AE0B9F5001F18D0B9F5041F30D117E09C
:100CE000D1F80CC02DE0D1F80C8008F1040C28E0FC
:100CF000D1F80C8008F1080C23E0D1F80C8008F141
:100D00000C0C1EE000BF00BF00BF00BF00BF00BF53
:100D1000D1F80880B8F1000F02D14FF0040C0BE0BD
:100D2000D1F80880B8F1010F03D14FF0080C1C6115
:100D300002E04FF0080C5C6103E04FF0000C00E0B3
:100D400000BF00BFFF2801D8984601E003F1040866
:100D50004646FF2802D84FEA820803E0A2F10808BD
:100D60004FEA88084746D6F800804FF00F0909FA85
:100D700007F928EA09080CFA07F900E088E048EAD0
:100D80000908C6F80080D1F8048008F08058B8F14E
:100D9000805F7DD100BFDFF8CC81D8F8188048F0A3
:100DA0000108DFF8C091C9F81880C846D8F8188043
:100DB00008F00108CDF8008000BF00BF4FEAB93845
:100DC0004FEA920958F829504FEA82784FEA187989
:100DD0004FF00F0808FA09F825EA0805DFF88881BE
:100DE000434502D14FF0000816E0DFF8808143450B
:100DF00002D14FF001080FE0DFF87481434502D1C2
:100E00004FF0020808E0DFF86C81434502D14FF053
:100E1000030801E04FF004084FEA82794FEA19799C
:100E200008FA09F848EA0505DFF84C814FEA92090B
:100E300048F82950D1F8048008F48038B8F5803F8C
:100E40000AD1DFF83881D8F8008048EA0008DFF8D6
:100E50002C91C9F8008009E0DFF82081D8F80080E3
:100E600028EA0008DFF81491C9F80080D1F804805E
:100E700008F40038B8F5003F10D1DFF8008108F120
:100E80000408D8F8008048EA0008DFF8F09000E095
:100E90005AE009F10409C9F800800DE0DFF8DC80B0
:100EA00008F10408D8F8008028EA0008DFF8CC90A0
:100EB00009F10409C9F80080D1F8048008F4801809
:100EC000B8F5801F0ED1DFF8B48008F10808D8F813
:100ED000008048EA0008DFF8A49009F10809C9F881
:100EE00000800DE0DFF8948008F10808D8F8008051
:100EF00028EA0008DFF8849009F10809C9F80080A1
:100F0000D1F8048008F40018B8F5001F0ED1DFF8FE
:100F10006C8008F10C08D8F8008048EA0008DFF877
:100F20005C9009F10C09C9F800800DE0DFF84C80F5
:100F300008F10C08D8F8008028EA0008DFF83C9097
:100F400009F10C09C9F80080521CD1F8008028FA78
:100F500002F8B8F1000F7FF489AEBDE8F887000011
:100F6000000011100010024000080140000C014078
:100F7000001001400014014008000140000401403D
:100F80000AB1016101E00B04036170470148006888
:100F900070470000280000200348006803490978D2
:100FA00008440149086070472800002030000020F4
:100FB00010B50848006840F010000649086003209A
:100FC00000F0ACF8002000F007F800F02BF800204B
:100FD00010BD00000020024070B504460E480078A5
:100FE0004FF47A71B1FBF0F00C490968B1FBF0F5F0
:100FF000284600F0FCFE08B1012070BD102C07D27D
:1010000000222146501E00F04BF80548046001E024
:101010000120F2E70020F0E730000020340000203B
:101020002C00002008B500BF1348806940F0010083
:10103000114988610846806900F00100009000BFF6
:1010400000BF00BF0846C06940F08050C861084634
:10105000C06900F08050009000BF00BF072000F082
:101060005DF800BF0549486820F0E06040F000707E
:10107000486000BF08BD00000010024000000140B1
:1010800001460846002809DB00F01F0301229A40B0
:1010900043099B0003F1E023C3F8002100BF704720
:1010A0002DE9F05F80460D461646002701F0FCFE54
:1010B000074639462A46334601F00700C0F1070AC1
:1010C000BAF1040F02D94FF0040A01E0C0F1070A97
:1010D000D14600F1040ABAF1070F02D24FF0000A1C
:1010E00001E0A0F1030AD4464FF0010A0AFA09FA16
:1010F000AAF1010A0AEA020A0AFA0CFA4FF0010BF5
:101100000BFA0CFBABF1010B0BEA030B4AEA0B04E5
:101110002146404601F0D0FEBDE8F09F00BF00F040
:101120000702064B19684FF6FF031940044B0B43A7
:1011300043EA0221014B196000BF70470CED00E04B
:101140000000FA0500BF00BF00BF00BF00BFBFF333
:101150004F8F00BF00BF00BF0948006800F4E06087
:1011600008490843001D0649086000BF00BF00BFD2
:10117000BFF34F8F00BF00BF00BF00BF00BFFDE740
:101180000CED00E00000FA052DE9F04385B00646BD
:101190003BA30FCB01AC0FC43DA0006800904FF003
:1011A0000008002500270024A146012E30D0022E81
:1011B00055D0102E5ED137484468006800F080702A
:1011C00000B301A8C4F38341475C04F4803070B1DC
:1011D00030484068C0F340401DF8008004F480307F
:1011E00040B12D48B0FBF8F000FB07F502E02B48BA
:1011F00007FB00F52748406800F48000B0F5800F39
:1012000001D1A94603E068000321B0FBF1F932E007
:101210002048046A04F44070B0F5807F05D104F0E2
:10122000020010B14FF4004918E004F44070B0F52A
:10123000007F07D11748406A00F0020010B149F65C
:1012400040490BE004F44070B0F5407F06D11148EE
:10125000006800F4003008B14FF224490BE000F0C0
:1012600093F90C494968C1F38131491C4900B0FB2D
:10127000F1F900E000BF00BF484605B0BDE8F083CB
:1012800002030405060708090A0B0C0D0E0F1010C7
:10129000010200000010024000127A0000093D0027
:1012A000F8B5044600260025207800F0010000284B
:1012B0006BD000274348C06900F0805070B900BF70
:1012C0004048C06940F080503E49C8610846C06946
:1012D00000F08050009000BF00BF01273A4800682E
:1012E00000F48070B0B93848006840F48070364926
:1012F0000860FFF74BFE064606E0FFF747FE801B3F
:10130000642801D90320F8BD2F48006800F48070DC
:101310000028F2D02B48006A00F440752DB3A08855
:1013200000F44070A84220D02648006A20F440759E
:10133000012026490860002008602248056205F067
:10134000010090B1FFF722FE064608E0FFF71EFEFF
:10135000801B41F28831884201D90320D3E7194824
:10136000006A00F002000028F0D01648006A20F45D
:1013700040706168084313490862012F04D1084690
:10138000C06920F08050C86100BF207800F00200E2
:10139000022807D10B48406820F44040A168084368
:1013A00008494860207800F01000102807D105484F
:1013B000406820F48000E16808430249486000204A
:1013C000A1E70000001002400070004040044242CB
:1013D00070B504460D460CB9012070BD5A4800682E
:1013E00000F00700A8420ED25748006820F007001E
:1013F0002843554908600846006800F00700A842E5
:1014000001D00120E9E7207800F0020002281DD178
:10141000207800F00400042805D14C48406840F4CE
:10142000E0604A494860207800F00800082805D1AB
:101430004648406840F4605044494860434840682A
:1014400020F0F000A168084340494860207800F08F
:10145000010078B36068012806D13C48006800F4B8
:10146000003090B90120B8E76068022806D13748FB
:10147000006800F0007040B90120AEE73348006812
:1014800000F0020008B90120A7E73048406820F0CA
:101490000300616808432D494860FFF777FD064661
:1014A00009E0FFF773FD801B41F28831884202D9C1
:1014B000032092E707E02548406800F00C006168CF
:1014C000B0EB810FEDD12048006800F00700A84282
:1014D0000ED91D48006820F0070028431A4908600B
:1014E0000846006800F00700A84201D0012074E718
:1014F000207800F00400042807D11448406820F444
:10150000E060E168084311494860207800F0080075
:10151000082808D10D48406820F46050216940EA4D
:10152000C1000A49486000F03FF808494968C1F322
:101530000311074A515CC840064908600648006824
:10154000FFF74AFD002048E700200240001002405B
:101550009C300008340000202C0000200148006866
:10156000704700003400002000B5FFF7F7FF044982
:101570004968C1F30221034A515CC84000BD000024
:1015800000100240AC30000800B5FFF7E7FF044947
:101590004968C1F3C221034A515CC84000BD000044
:1015A00000100240AC300008F0B585B00FF26C0CB2
:1015B0009CE8E01001A8A0E8E0101CA52D680095AB
:1015C00000210022002300240020194D696801F049
:1015D0000C05F5B1042D02D0082D19D101E01548F4
:1015E00019E001ADC1F38346AC5D01F4803555B11E
:1015F0000F4D6D68C5F340451DF805200D4D654341
:10160000B5FBF2F302E00C4D04FB05F3184602E0D3
:1016100000BF084800BF00BF05B0F0BD02030405CD
:10162000060708090A0B0C0D0E0F1010010200002E
:101630000010024000127A0000093D00F8B504468F
:101640000CB90120F8BD207800F00100002878D006
:10165000F848406800F00C0004280CD0F5484068B9
:1016600000F00C00082811D1F248406800F48030E6
:10167000B0F5803F0AD1EF48006800F40030002840
:101680005FD0606800285CD10120DBE700BF6068A4
:10169000B0F5803F06D1E748006840F48030E54966
:1016A000086028E0606858B9E248006820F480309B
:1016B000E04908600846006820F4802008601AE0CD
:1016C0006068B0F5A02F0BD1DA48006840F48020A4
:1016D000D84908600846006840F4803008600AE095
:1016E000D448006820F48030D24908600846006879
:1016F00020F48020086000BF606888B1FFF746FCD6
:10170000054606E0FFF742FC401B642801D9032090
:1017100098E7C848006800F400300028F2D010E0D4
:10172000FFF734FC054606E0FFF730FC401B642859
:1017300001D9032086E7BF48006800F40030002884
:10174000F2D1207800F00200022857D1B948406851
:1017500000F00C0050B1B748406800F00C000828B9
:1017600018D1B448406800F4803098B9B148006896
:1017700000F0020020B12069012801D0012061E7BA
:10178000AC48006820F0F800616940EAC100A9494E
:10179000086033E02069E8B10120A7490860FFF73D
:1017A000F5FB054606E0FFF7F1FB401B022801D9D7
:1017B000032047E79F48006800F002000028F2D0AD
:1017C0009C48006820F0F800616940EAC10099492E
:1017D000086013E0002098490860FFF7D7FB054632
:1017E00006E0FFF7D3FB401B022801D9032029E7BD
:1017F0009048006800F002000028F2D1207800F044
:10180000080008282DD1A069B8B101208B490860D3
:10181000FFF7BCFB054606E0FFF7B8FB401B0228BC
:1018200001D903200EE78348406A00F00200002837
:10183000F2D0012001F086F813E000207F49086013
:10184000FFF7A4FB054606E0FFF7A0FB401B0228BC
:1018500001D90320F6E67748406A00F0020000282C
:10186000F2D1207800F00400042873D100277148D9
:10187000C06900F0805070B900BF6E48C06940F088
:1018800080506C49C8610846C06900F080500090E3
:1018900000BF00BF01276A48006800F48070B0B93B
:1018A0006748006840F4807065490860FFF76EFB88
:1018B000054606E0FFF76AFB401B642801D90320B8
:1018C000C0E65F48006800F480700028F2D000BFD6
:1018D000E068012806D15748006A40F001005549E8
:1018E000086227E0E06858B95248006A20F0010019
:1018F000504908620846006A20F00400086219E0B6
:10190000E06805280BD14B48006A40F004004949C3
:1019100008620846006A40F0010008620AE0454893
:10192000006A20F00100434908620846006A20F07E
:101930000400086200BFE068A0B1FFF727FB05467E
:1019400009E0FFF723FB401B41F28831884202D9AE
:10195000032077E622E03748006A00F00200002802
:10196000EFD012E0FFF712FB054608E0FFF70EFB91
:10197000401B41F28831884201D9032062E62D489C
:10198000006A00F002000028F0D1012F05D129489B
:10199000C06920F080502749C86100BFE069C8B322
:1019A0002448406800F00C00082860D0E069022854
:1019B00048D1002020490866FFF7E8FA054606E00E
:1019C000FFF7E4FA401B022801D903203AE6194840
:1019D000006800F000700028F2D1206AB0F5803F66
:1019E00007D11448406820F40030A1680843114929
:1019F0004860D4E9080108430E49496821F474118C
:101A000008430C49486001200B490866FFF7BEFAFD
:101A1000054607E03DE0FFF7B9FA401B022801D96F
:101A200003200FE60348006800F000700028F2D0A1
:101A30002FE00000001002400000424280044242B9
:101A400000700040002014490866FFF79FFA054621
:101A500006E0FFF79BFA401B022801D90320F1E5BD
:101A60000E48006800F000700028F2D111E0E06933
:101A7000012800D1E6E50948466806F48031206A6D
:101A8000814204D106F47011606A814201D00120C4
:101A9000D8E50020D6E500000000424200100240D8
:101AA00010B504460CB9012010BD606A00B900BF32
:101AB0000021A16294F8510028B9002084F8500058
:101AC000204600F031F8022084F8510020680068B8
:101AD00020F0400021680860D4E901010843E16872
:101AE00008432169084361690843218B01F40071AF
:101AF0000843E1690843216A0843A16A0843216851
:101B000008600421A06901EA10402168486020684B
:101B1000C06920F400602168C86100206065012070
:101B200084F851000020BFE710B586B004460020BD
:101B300002900390049005901E492068884236D197
:101B400000BF1D48806940F480501B4988610846E9
:101B5000806900F48050019000BF00BF00BF0846BC
:101B6000806940F0080088610846806900F008003C
:101B7000019000BF00BF28200290022003900320A4
:101B8000059002A90D48FFF76BF810200290002085
:101B90000390049002A90948FFF762F800BF0849C2
:101BA000486840F0E06040F00100486000BF06B0C7
:101BB00010BD00000030014000100240000C014048
:101BC000000001402DE9FF5F0446884691461D460E
:101BD0000E9E012002900020019000BF94F850005A
:101BE000012803D1022004B0BDE8F09F012084F851
:101BF000500000BFFFF7CAF9074694F851B060687B
:101C00000390AA46BBF1010F0BD00398B0F5827F79
:101C100004D1A06810B9BBF1040F02D002200190DA
:101C2000DBE0B8F1000F03D0B9F1000F00D015B917
:101C300001200190D1E094F85100042802D0052041
:101C400084F8510000206065C4F83890E587A587C6
:101C5000C4F83080E586A58620646064206800684A
:101C600000F04000402805D02068006840F04000A7
:101C700021680860E068B0F5006F4AD1606810B173
:101C8000BAF1010F09D1206B00882168C860206B70
:101C9000801C2063E08E401EE08633E02068806870
:101CA00000F00200022810D1E08E70B102980128E5
:101CB0000BD1206B00882168C860206B801C2063DA
:101CC000E08E401EE086002002902068806800F0D0
:101CD000010068B1E08F58B12068C068A16B08802E
:101CE000A06B801CA063E08F401EE0870120029063
:101CF000FFF74CF9C01BB04204D3701C10B1032095
:101D000001906AE0E08E0028C8D1E08F0028C5D19C
:101D10004AE0606810B1BAF1010F09D1206B007878
:101D200021680873206B401C2063E08E401EE08613
:101D300034E02068806800F00200022810D1E08EB4
:101D400070B1029801280BD1206B007821680873CC
:101D5000206B401C2063E08E401EE0860020029035
:101D60002068806800F0010068B1E08F58B12068F9
:101D7000C068A16B0870A06B401CA063E08F401E80
:101D8000E08701200290FFF701F9C01BB04201D3A8
:101D9000701C00B916B9032001901EE0E08E0028E7
:101DA000C7D1E08F0028C4D13A463146204600F022
:101DB00011FE20B101200190202060650DE0A06897
:101DC00050B900BF002000902068C06800902068D3
:101DD0008068009000BF00BF00BF012084F8510060
:101DE00000BF002084F8500000BF0198FBE670B5EA
:101DF00004462546681EB0F1807F01D301200FE024
:101E0000681E4FF0E02148610F214FF0FF3001F0D4
:101E100053F800204FF0E02188610720086100207E
:101E200070BD7047704710B5024600BF92F83C0085
:101E3000012801D1022010BD012082F83C0000BF22
:101E4000022082F83D00106843681068846823F01F
:101E500070030868034324F0800448680443106852
:101E6000436010688460012082F83D0000BF0020BC
:101E700082F83C0000BF00BFDDE710B504460CB996
:101E8000012010BD94F83D0028B9002084F83C00E2
:101E9000204600F00DF8022084F83D00211D206846
:101EA00000F07CFE012084F83D000020E9E70000FE
:101EB00038B504460D492068884215D100BF0C484A
:101EC000C06940F002000A49C8610846C06900F0D4
:101ED0000200009000BF00BF0F2200211D20FFF76D
:101EE000DFF81D20FFF7CCF838BD000000040040EB
:101EF0000010024001460868C06840F001000B680D
:101F0000D8600868806800F00702062A05D00868D3
:101F1000006840F001000B681860002070472DE950
:101F2000F04104460D4600BF94F83C00012802D160
:101F30000220BDE8F081012084F83C0000BF0220AF
:101F400084F83D002068866826F0770626F47F46F0
:101F5000206886602868502833D00CDC202850D0B8
:101F600004DC00284BD0102851D149E0302849D05A
:101F700040284CD139E060282DD0702807D0B0F52A
:101F8000805F03D0B0F5005F41D10DE040E0D5E9BE
:101F900002136A68206800F03BFE2068866846F0FD
:101FA00077062068866033E0D5E902136A68206806
:101FB00000F02EFE2068806840F480402168886030
:101FC00026E0EA686968206800F036FE5021206843
:101FD00000F029FE1CE0EA686968206800F03FFE16
:101FE0006021206800F01FFE12E0EA68696820683E
:101FF00000F022FE4021206800F015FE08E000BF3E
:1020000000BF00BF2968206800F00DFE00E000BF9F
:1020100000BF012084F83D0000BF002084F83C0090
:1020200000BF00BF85E7704710B50446206800690F
:10203000C0F34000D8B12068C068C0F34000B0B120
:102040006FF0020021680861012020772068806914
:1020500000F0030018B12046FFF7E5FF05E0204639
:1020600000F0ADF8204600F0ABF8002020772068A3
:102070000069C0F38000D8B12068C068C0F3800058
:10208000B0B16FF004002168086102202077206859
:10209000806900F4407018B12046FFF7C4FF05E0E6
:1020A000204600F08CF8204600F08AF800202077C7
:1020B00020680069C0F3C000D8B12068C068C0F3D0
:1020C000C000B0B16FF008002168086104202077DB
:1020D0002068C06900F0030018B12046FFF7A3FF95
:1020E00005E0204600F06BF8204600F069F800207B
:1020F000207720680069C0F30010D8B12068C0685C
:10210000C0F30010B0B16FF0100021680861082022
:1021100020772068C06900F4407018B12046FFF7AE
:1021200082FF05E0204600F04AF8204600F048F81B
:10213000002020772068006900F0010058B1206875
:10214000C06800F0010030B16FF001002168086143
:10215000204600F036F820680069C0F3C01058B17E
:102160002068C068C0F3C01030B16FF080002168F3
:1021700008612046FFF755FE20680069C0F3801013
:1021800058B12068C068C0F3801030B16FF04000D3
:1021900021680861204600F015F820680069C0F346
:1021A000401058B12068C068C0F3401030B16FF0E3
:1021B0002000216808612046FFF734FE10BD7047FB
:1021C00070477047704710B504460CB9012010BD28
:1021D000A06900B100E000BF94F8390028B90020E0
:1021E00084F83800204600F027F8242084F83900CD
:1021F0002068C06820F400502168C860204600F0C4
:1022000043FD2068006920F490402168086120683F
:10221000406920F02A00216848612068C06840F4C5
:1022200000502168C8600020E063202084F8390055
:1022300084F83A000020CAE710B586B004460020B2
:1022400002900390049005901A49206888422ED18C
:1022500000BF1948806940F48040174988610846EA
:10226000806900F48040019000BF00BF00BF0846B5
:10227000806940F0040088610846806900F004002D
:10228000019000BF00BF4815029002200390032078
:10229000059002A90948FEF7E3FC4FF48060029024
:1022A00000200390049002A90448FEF7D9FC06B070
:1022B00010BD00000038014000100240000801403D
:1022C0002DE9F84304460D4616461F464FF0000917
:1022D00094F8390020285CD105B116B90120BDE879
:1022E000F88300BF94F83800012801D10220F6E7F6
:1022F000012084F8380000BF0020E063212084F82A
:102300003900FEF743FE8146A684E6842BE0E08C8C
:10231000401EE084A068B0F5805F16D14B460022D5
:1023200080212046009700F07FFD08B10320D6E70A
:10233000A846B8F80000C0F308002168486020698A
:1023400008B9AD1C0FE06D1C0DE04B46002280214A
:102350002046009700F068FD08B10320BFE715F89C
:10236000010B21684860E08C0028D0D14B46002248
:1023700040212046009700F057FD08B10320AEE74A
:10238000202084F8390000BF002084F8380000BF06
:10239000A5E70220A3E700BFFEE700000EB500207E
:1023A0000090019002902B482B49086081152A4823
:1023B00081600021017301754FF40021C16100208B
:1023C00025494860062124480161FEF72BF908B130
:1023D000FDF797FF0120009001906FF040400290C0
:1023E00069461D48FEF710F808B1FDF78AFF022084
:1023F0000090019069461848FEF706F808B1FDF70D
:1024000080FF03200090019069461348FDF7FCFF10
:1024100008B1FDF776FF04200090019069460E4850
:10242000FDF7F2FF08B1FDF76CFF05200090019069
:1024300069460948FDF7E8FF08B1FDF762FF06208D
:102440000090019069460448FDF7DEFF08B1FDF7F2
:1024500058FF0EBD002401408001002008B500BFD8
:102460000A48406940F0010008494861084640694F
:1024700000F00100009000BF00BF0F2200210B20E0
:10248000FEF70EFE0B20FEF7FBFD08BD001002401C
:1024900000B585B00020019002900390049000BF29
:1024A0003948806940F010003749886108468069E2
:1024B00000F01000009000BF00BF00BF0846806918
:1024C00040F0200088610846806900F020000090FC
:1024D00000BF00BF00BF0846806940F0040088616B
:1024E0000846806900F00400009000BF00BF00BFF4
:1024F0000846806940F0080088610846806900F05D
:102500000800009000BF00BF012251031F48FEF7E2
:1025100037FD00224FF400411D48FEF731FD002237
:1025200040211C48FEF72CFD4FF400500190012083
:10253000029003900220049001A91448FEF790FB3A
:102540004FF400400190012002900390032004907A
:1025500001A90F48FEF784FB402001900120029062
:1025600003900320049001A90A48FEF779FB80201C
:102570000190002002900120039001A90548FEF778
:102580006FFB05B000BD00000010024000100140CC
:1025900000080140000C014010B50E480E490860CB
:1025A0004FF48270486000210B488160C160016176
:1025B00041614FF4007181611821C1610021016204
:1025C000416281620A21C162FFF76AFA08B1FDF730
:1025D00098FE10BD00300140F401002000B587B026
:1025E00000200390049005900690019002901548F9
:1025F0001549086040F26710486000211248816068
:102600006321C160002101618161FFF736FC08B1DF
:10261000FDF777FE4FF48050039003A90A48FFF7B7
:102620007EFC08B1FDF76DFE202001900020029095
:1026300001A90548FFF7F7FB08B1FDF762FE07B0F7
:1026400000BD0000000400404C02002010B50B4803
:102650000B4908604FF4E130486000210848816070
:10266000C16001610C21416100218161C161FFF7FD
:10267000AAFD08B1FDF745FE10BD0000003801407D
:102680008C02002000BFFEE7704700001CB513A0BD
:1026900000F002FC17A103C9CDE90001182000F0E9
:1026A00075F905226946302000F014F905226946C3
:1026B000102000F05BF8002406E01DF80400A528B7
:1026C00000D003E0601CC4B2052CF6DB00BF052C73
:1026D00001D001201CBD0020FCE700000A0D206E87
:1026E0007266B2E2CAD4CAC7B7F1C1ACBDD30A0D93
:1026F00000000000A5A5A5A5A50000000020034935
:10270000086001200249C1F898017047BC012142CC
:102710000080214210B500201149086005221149AE
:102720002A2000F0D7F80121212000F0F1F8012142
:10273000222000F0EDF86321252000F0E9F81421B3
:10274000312000F0E5F80F21262000F0E1F80F21FC
:10275000202000F0DDF801200349C1F8BC0110BDC4
:10276000BC012142B9300008000021422DE9F041AE
:1027700007460D46164600200A490860384600F014
:10278000F5F88046002405E0FF2000F0EFF828551A
:10279000601CC4B2B442F7DB012002490860404625
:1027A000BDE8F0819881214270B5044600200749B8
:1027B0000860204600F0DAF8FF2000F0D7F8054660
:1027C00001200349C1F89801284670BD9881214233
:1027D0000080214270B504460720FFF7E5FF05465B
:1027E0002946272000F094F805F0400050B114224B
:1027F00021466120FFF7BAFFFF21E22000F088F8B0
:10280000002070BD0120FCE710B5002014490860CD
:1028100005221449302000F05DF8052212492A20D3
:1028200000F058F80121212000F072F80121222047
:1028300000F06EF81A21242000F06AF863212520A8
:1028400000F066F80F21262000F062F80E2120200B
:1028500000F05EF801200549C1F8BC0110BD000080
:10286000BC012142B4300008B93000080000214208
:1028700070B5054600201449086014222946A0209E
:1028800000F028F801201149C1F8BC0100BF104830
:1028900000680028FBD10720FFF786FF0446214689
:1028A000272000F035F804F0100028B1FF21E120C6
:1028B00000F02EF8102070BD04F0200008B1202098
:1028C000F9E7FF20F7E70000BC01214200002142A8
:1028D0001C8121422DE9F04107460C461546002097
:1028E0000A490860384600F041F88046002605E0B5
:1028F00014F8010B00F03AF8701CC6B2AE42F7DBD8
:102900000120024908604046BDE8F08198812142DB
:1029100070B505460C46002007490860284600F0BF
:1029200025F80646204600F021F801200349C1F8A9
:102930009801304670BD00009881214200802142FC
:102940007047000008B508490968C9084FF47A7251
:10295000B1FBF2F14143009100BF00BF00994A1E54
:1029600000920029F9D108BD3400002001B582B0E1
:102970004FF47A70012301AA02A900900248FFF7E0
:1029800021F99DF804000EBDF401002010490968EA
:10299000096821F040010E4A126811600C4909686B
:1029A00009684FF6C7721140094A12681160084958
:1029B000096809680143064A1268116004490968F8
:1029C000096841F04001024A126811607047000036
:1029D000F4010020F8B504460D4616462B460022A9
:1029E00080212046009600F009F828B1606D40F083
:1029F000200060650320F8BD0020FCE72DE9F041D0
:102A000004460E4617461D46DDF818803EE0681C59
:102A1000D8B3FEF7BBFAA0EB0800A84200D2A5BBD2
:102A20002068406820F0E000216848606068B0F5E8
:102A3000827F0DD1A068B0F5004F03D0A068B0F53B
:102A4000806F05D12068006820F040002168086090
:102A5000A06AB0F5005F0DD100BF2068006820F4C7
:102A60000050216808602068006840F40050216828
:102A7000086000BF012084F8510000BF002084F8E6
:102A8000500000BF0320BDE8F081FFE720688068A8
:102A90003040B04201D1012000E00020B842B6D160
:102AA0000020F0E7704710B5FEF776FA10BD00B5CC
:102AB00093B0282109A8FDF73CFB142104A8FDF7D9
:102AC00038FB0020009001900290039001200990B3
:102AD00000040A9000200B9001200D90022010901D
:102AE000C10311914FF4E011129109A8FEF7A6FD60
:102AF00008B1FDF706FC0F2004900220059000208D
:102B000006904FF4A060079000200890022104A8CE
:102B1000FEF75EFC08B1FDF7F4FB022000904FF4D5
:102B2000404002906846FEF7BBFB08B1FDF7E9FBA9
:102B300013B000BD1148006840F001000F49086063
:102B4000084640680E4908400C494860084600683D
:102B50000C490840094908600846006820F48020B4
:102B600008600846406820F4FE0048604FF41F00EB
:102B70008860C803044908607047000000100240E4
:102B80000000FFF8FFFFF6FE08ED00E010B5024878
:102B9000FFF74AFA10BD00004C02002010B5026891
:102BA000184B984208D0B0F1804F05D0164B984290
:102BB00002D0164B984203D122F070024B681A43A0
:102BC000104B984208D0B0F1804F05D00E4B984280
:102BD00002D00E4B984203D122F44072CB681A43C4
:102BE00022F080034C6943EA040202608B68C362EE
:102BF0000B688362034B984201D10B690363012385
:102C0000436110BD002C014000040040000800405A
:102C100030B50C46816821F47F4142EA0325254303
:102C20002943816030BD0A46816821F0700142F07D
:102C3000070319438160704730B50B461446026A9A
:102C4000056A25F001050562816921F0F00141EA7C
:102C5000041122F00A021A438161026230BD30B5CC
:102C60000B461446056A25F0100505628169026A63
:102C700021F4704141EA043122F0A00242EA031239
:102C80008161026230BD000070B5044621680969A7
:102C900021F44051E2681143226811612269A16860
:102CA0001143626941EA02052168C96841F20C6278
:102CB000914329432268D1602168496921F4407118
:102CC000A269114322685161564A2168914254D148
:102CD000FEF75AFC00EBC00101EB001162689200A4
:102CE000B1FBF2F100EBC00202EB001263689B0043
:102CF000B2FBF3F26423B2FBF3F202EBC20303EB89
:102D00000212A1EB8201322202EB01116422B1FB1B
:102D1000F2F101F0F00100EBC00202EB0012636877
:102D20009B00B2FBF3F26423B2FBF3F201EB02125D
:102D300000EBC00101EB001163689B00B1FBF3F1F4
:102D400000EBC00303EB00136668B600B3FBF6F3B9
:102D50006426B3FBF6F303EBC30606EB0313A1EB08
:102D60008301322303EB01116423B1FBF3F101F082
:102D70000F0111442268916053E0FEF7F5FB00EB70
:102D8000C00101EB001162689200B1FBF2F100EBAF
:102D9000C00202EB001263689B00B2FBF3F26423F3
:102DA000B2FBF3F202EBC20303EB0212A1EB8201CE
:102DB000322202EB01116422B1FBF2F101F0F001C9
:102DC00000EBC00202EB001263689B00B2FBF3F25F
:102DD0006423B2FBF3F201EB021200EBC00101EB42
:102DE000001163689B00B1FBF3F100EBC00303EB40
:102DF00000136668B600B3FBF6F36426B3FBF6F384
:102E000003EBC30606EB0313A1EB8301322303EBB1
:102E100001116423B1FBF3F101F00F0111442268A9
:102E2000916070BD003801402DE9F04104460D4627
:102E300017469846069E21E0701CF8B12EB1FEF7A9
:102E4000A5F8A0EB0800B04218D92068C06820F4AB
:102E5000D0702168C8602068406920F001002168B6
:102E60004861202084F8390084F83A0000BF00202F
:102E700084F8380000BF0320BDE8F08120680068B6
:102E80002840A84201D1012000E00020B842D3D060
:102E90000020F1E700BFFEE7014A024900F02FB829
:102EA000212F00083800002002480068C0F30220EB
:102EB000704700000CED00E010B5002804DB0A07A5
:102EC000130E054A135406E00A07140E034A00F0D5
:102ED0000F031B1FD45410BD00E400E018ED00E008
:102EE00002E008C8121F08C1002AFAD170477047D3
:102EF000002001E001C1121F002AFBD170472DE91B
:102F0000F04116460F460446002503E03946B04717
:102F1000641C6D1C20780028F8D12846BDE8F0819B
:102F200013B50C464FF6FF73012269460248FFF7BE
:102F3000C7F900981CBD00008C02002008B5FEF700
:102F400037F8FFF7B4FD2DA000680090022301229E
:102F500069462B48FFF7B4F9FFF79AFAFFF77EFAB4
:102F6000FFF71AFBFFF772FBFFF718FAFFF736FBC4
:102F7000FFF7C4FBFFF78AFB10B122A0FFF78CFF1D
:102F80002748FDF7BFF90A20FDF756FE2548FEF752
:102F9000B1FF10B124A0FFF77FFF78222C49204811
:102FA000FDF73AFCFFF772FB002824D129A0FFF7B8
:102FB00073FF1820FFF7EAFC2D480078012812D192
:102FC0002CA0FFF769FF00240BE0FFF7A3FB2D48BF
:102FD000FFF700FC2C4908704FF47A70FDF72CFEC7
:102FE000641C222CF1DB2248007820B927A0FFF7CF
:102FF00053FFFFF709FC00BFFEE7000011000000CF
:103000008C0200200A0D206E7266B2E2CAD4CAA7F2
:10301000B0DC206E7266CEB4C1ACBDD30A0D000028
:10302000800100204C0200200D0A2A2A2A2A2A2A7E
:103030002A2A20B6A8CAB1C6F7B4F2BFAACAA7B056
:10304000DC202A2A2A2A2A2A2A2A0D0A0D0A000006
:103050005C0000200A0D206E7266B2E2CAD4B3C9C9
:10306000B9A6206E7266C1ACBDD30A0D0000000087
:10307000140000200A0D20BDD3CAD5C4A3CABD0ABE
:103080000D00000000000020160000200A0D20B7EF
:10309000A2CBCDC4A3CABD0A0D00000000000000F1
:1030A00000000000010203040607080900000000F8
:1030B00001020304344310100134431010010000D6
:1030C000E0300008000000203C000000E02E000876
:1030D0001C3100083C00002094060000F02E00087F
:1030E0000001020304050607080910111213141544
:1030F0001617181900000000000000000000000072
:1031000000000000000000000000000010000000AF
:0C311000010000000024F400000000009A
:04000005080000ED02
:00000001FF
